{
  "contractName": "KYC",
  "abi": [
    {
      "inputs": [
        {
          "internalType": "string",
          "name": "name_",
          "type": "string"
        },
        {
          "internalType": "string",
          "name": "email_",
          "type": "string"
        }
      ],
      "stateMutability": "nonpayable",
      "type": "constructor"
    },
    {
      "anonymous": false,
      "inputs": [
        {
          "indexed": false,
          "internalType": "address",
          "name": "id_",
          "type": "address"
        },
        {
          "indexed": false,
          "internalType": "string",
          "name": "name",
          "type": "string"
        }
      ],
      "name": "BankActivated",
      "type": "event"
    },
    {
      "anonymous": false,
      "inputs": [
        {
          "indexed": false,
          "internalType": "address",
          "name": "id_",
          "type": "address"
        },
        {
          "indexed": false,
          "internalType": "string",
          "name": "name",
          "type": "string"
        },
        {
          "indexed": false,
          "internalType": "string",
          "name": "email",
          "type": "string"
        },
        {
          "indexed": false,
          "internalType": "string",
          "name": "ifscCode",
          "type": "string"
        }
      ],
      "name": "BankAdded",
      "type": "event"
    },
    {
      "anonymous": false,
      "inputs": [
        {
          "indexed": false,
          "internalType": "address",
          "name": "id_",
          "type": "address"
        },
        {
          "indexed": false,
          "internalType": "string",
          "name": "name",
          "type": "string"
        }
      ],
      "name": "BankDeactivated",
      "type": "event"
    },
    {
      "anonymous": false,
      "inputs": [
        {
          "indexed": false,
          "internalType": "address",
          "name": "id_",
          "type": "address"
        },
        {
          "indexed": false,
          "internalType": "string",
          "name": "name",
          "type": "string"
        },
        {
          "indexed": false,
          "internalType": "string",
          "name": "email",
          "type": "string"
        }
      ],
      "name": "BankUpdated",
      "type": "event"
    },
    {
      "anonymous": false,
      "inputs": [
        {
          "indexed": false,
          "internalType": "address",
          "name": "id_",
          "type": "address"
        },
        {
          "indexed": false,
          "internalType": "string",
          "name": "name",
          "type": "string"
        },
        {
          "indexed": false,
          "internalType": "string",
          "name": "email",
          "type": "string"
        }
      ],
      "name": "CustomerAdded",
      "type": "event"
    },
    {
      "anonymous": false,
      "inputs": [
        {
          "indexed": false,
          "internalType": "address",
          "name": "id_",
          "type": "address"
        },
        {
          "indexed": false,
          "internalType": "string",
          "name": "name",
          "type": "string"
        },
        {
          "indexed": false,
          "internalType": "string",
          "name": "email",
          "type": "string"
        }
      ],
      "name": "CustomerDataUpdated",
      "type": "event"
    },
    {
      "anonymous": false,
      "inputs": [
        {
          "indexed": false,
          "internalType": "string",
          "name": "reqId",
          "type": "string"
        },
        {
          "indexed": false,
          "internalType": "address",
          "name": "customerId",
          "type": "address"
        },
        {
          "indexed": false,
          "internalType": "address",
          "name": "bankId",
          "type": "address"
        },
        {
          "indexed": false,
          "internalType": "enum Types.DataHashStatus",
          "name": "status",
          "type": "uint8"
        }
      ],
      "name": "DataHashPermissionChanged",
      "type": "event"
    },
    {
      "anonymous": false,
      "inputs": [
        {
          "indexed": false,
          "internalType": "address",
          "name": "id_",
          "type": "address"
        },
        {
          "indexed": false,
          "internalType": "string",
          "name": "customerName",
          "type": "string"
        },
        {
          "indexed": false,
          "internalType": "string",
          "name": "dataHash",
          "type": "string"
        }
      ],
      "name": "DataHashUpdated",
      "type": "event"
    },
    {
      "anonymous": false,
      "inputs": [
        {
          "indexed": false,
          "internalType": "string",
          "name": "reqId",
          "type": "string"
        },
        {
          "indexed": false,
          "internalType": "string",
          "name": "bankName",
          "type": "string"
        },
        {
          "indexed": false,
          "internalType": "string",
          "name": "customerName",
          "type": "string"
        }
      ],
      "name": "KycReRequested",
      "type": "event"
    },
    {
      "anonymous": false,
      "inputs": [
        {
          "indexed": false,
          "internalType": "string",
          "name": "reqId",
          "type": "string"
        },
        {
          "indexed": false,
          "internalType": "string",
          "name": "bankName",
          "type": "string"
        },
        {
          "indexed": false,
          "internalType": "string",
          "name": "customerName",
          "type": "string"
        }
      ],
      "name": "KycRequestAdded",
      "type": "event"
    },
    {
      "anonymous": false,
      "inputs": [
        {
          "indexed": false,
          "internalType": "string",
          "name": "reqId",
          "type": "string"
        },
        {
          "indexed": false,
          "internalType": "address",
          "name": "customerId",
          "type": "address"
        },
        {
          "indexed": false,
          "internalType": "address",
          "name": "bankId",
          "type": "address"
        },
        {
          "indexed": false,
          "internalType": "enum Types.KycStatus",
          "name": "status",
          "type": "uint8"
        }
      ],
      "name": "KycStatusChanged",
      "type": "event"
    },
    {
      "inputs": [
        {
          "internalType": "uint256",
          "name": "pageNumber",
          "type": "uint256"
        }
      ],
      "name": "getAllBanks",
      "outputs": [
        {
          "internalType": "uint256",
          "name": "totalPages",
          "type": "uint256"
        },
        {
          "components": [
            {
              "internalType": "string",
              "name": "name",
              "type": "string"
            },
            {
              "internalType": "string",
              "name": "email",
              "type": "string"
            },
            {
              "internalType": "address",
              "name": "id_",
              "type": "address"
            },
            {
              "internalType": "string",
              "name": "ifscCode",
              "type": "string"
            },
            {
              "internalType": "uint16",
              "name": "kycCount",
              "type": "uint16"
            },
            {
              "internalType": "enum Types.BankStatus",
              "name": "status",
              "type": "uint8"
            }
          ],
          "internalType": "struct Types.Bank[]",
          "name": "",
          "type": "tuple[]"
        }
      ],
      "stateMutability": "view",
      "type": "function",
      "constant": true
    },
    {
      "inputs": [
        {
          "components": [
            {
              "internalType": "string",
              "name": "name",
              "type": "string"
            },
            {
              "internalType": "string",
              "name": "email",
              "type": "string"
            },
            {
              "internalType": "address",
              "name": "id_",
              "type": "address"
            },
            {
              "internalType": "string",
              "name": "ifscCode",
              "type": "string"
            },
            {
              "internalType": "uint16",
              "name": "kycCount",
              "type": "uint16"
            },
            {
              "internalType": "enum Types.BankStatus",
              "name": "status",
              "type": "uint8"
            }
          ],
          "internalType": "struct Types.Bank",
          "name": "bank_",
          "type": "tuple"
        }
      ],
      "name": "addBank",
      "outputs": [],
      "stateMutability": "nonpayable",
      "type": "function"
    },
    {
      "inputs": [
        {
          "internalType": "address",
          "name": "id_",
          "type": "address"
        },
        {
          "internalType": "string",
          "name": "email_",
          "type": "string"
        },
        {
          "internalType": "string",
          "name": "name_",
          "type": "string"
        }
      ],
      "name": "updateBankDetails",
      "outputs": [],
      "stateMutability": "nonpayable",
      "type": "function"
    },
    {
      "inputs": [
        {
          "internalType": "address",
          "name": "id_",
          "type": "address"
        },
        {
          "internalType": "bool",
          "name": "makeActive_",
          "type": "bool"
        }
      ],
      "name": "activateDeactivateBank",
      "outputs": [],
      "stateMutability": "nonpayable",
      "type": "function"
    },
    {
      "inputs": [
        {
          "internalType": "uint256",
          "name": "pageNumber",
          "type": "uint256"
        }
      ],
      "name": "getCustomersOfBank",
      "outputs": [
        {
          "internalType": "uint256",
          "name": "totalPages",
          "type": "uint256"
        },
        {
          "components": [
            {
              "internalType": "string",
              "name": "id_",
              "type": "string"
            },
            {
              "internalType": "address",
              "name": "userId_",
              "type": "address"
            },
            {
              "internalType": "string",
              "name": "customerName",
              "type": "string"
            },
            {
              "internalType": "address",
              "name": "bankId_",
              "type": "address"
            },
            {
              "internalType": "string",
              "name": "bankName",
              "type": "string"
            },
            {
              "internalType": "string",
              "name": "dataHash",
              "type": "string"
            },
            {
              "internalType": "uint256",
              "name": "updatedOn",
              "type": "uint256"
            },
            {
              "internalType": "enum Types.KycStatus",
              "name": "status",
              "type": "uint8"
            },
            {
              "internalType": "enum Types.DataHashStatus",
              "name": "dataRequest",
              "type": "uint8"
            },
            {
              "internalType": "string",
              "name": "additionalNotes",
              "type": "string"
            }
          ],
          "internalType": "struct Types.KycRequest[]",
          "name": "",
          "type": "tuple[]"
        }
      ],
      "stateMutability": "view",
      "type": "function",
      "constant": true
    },
    {
      "inputs": [
        {
          "components": [
            {
              "internalType": "string",
              "name": "name",
              "type": "string"
            },
            {
              "internalType": "string",
              "name": "email",
              "type": "string"
            },
            {
              "internalType": "uint256",
              "name": "mobileNumber",
              "type": "uint256"
            },
            {
              "internalType": "address",
              "name": "id_",
              "type": "address"
            },
            {
              "internalType": "address",
              "name": "kycVerifiedBy",
              "type": "address"
            },
            {
              "internalType": "string",
              "name": "dataHash",
              "type": "string"
            },
            {
              "internalType": "uint256",
              "name": "dataUpdatedOn",
              "type": "uint256"
            }
          ],
          "internalType": "struct Types.Customer",
          "name": "customer_",
          "type": "tuple"
        },
        {
          "internalType": "uint256",
          "name": "currentTime_",
          "type": "uint256"
        },
        {
          "internalType": "string",
          "name": "notes_",
          "type": "string"
        }
      ],
      "name": "addKycRequest",
      "outputs": [],
      "stateMutability": "nonpayable",
      "type": "function"
    },
    {
      "inputs": [
        {
          "internalType": "address",
          "name": "id_",
          "type": "address"
        },
        {
          "internalType": "string",
          "name": "notes_",
          "type": "string"
        }
      ],
      "name": "reRequestForKycRequest",
      "outputs": [],
      "stateMutability": "nonpayable",
      "type": "function"
    },
    {
      "inputs": [
        {
          "internalType": "address",
          "name": "userId_",
          "type": "address"
        },
        {
          "internalType": "bool",
          "name": "verified_",
          "type": "bool"
        },
        {
          "internalType": "string",
          "name": "note_",
          "type": "string"
        }
      ],
      "name": "updateKycVerification",
      "outputs": [],
      "stateMutability": "nonpayable",
      "type": "function"
    },
    {
      "inputs": [
        {
          "internalType": "address",
          "name": "id_",
          "type": "address"
        }
      ],
      "name": "searchCustomers",
      "outputs": [
        {
          "internalType": "bool",
          "name": "",
          "type": "bool"
        },
        {
          "components": [
            {
              "internalType": "string",
              "name": "name",
              "type": "string"
            },
            {
              "internalType": "string",
              "name": "email",
              "type": "string"
            },
            {
              "internalType": "uint256",
              "name": "mobileNumber",
              "type": "uint256"
            },
            {
              "internalType": "address",
              "name": "id_",
              "type": "address"
            },
            {
              "internalType": "address",
              "name": "kycVerifiedBy",
              "type": "address"
            },
            {
              "internalType": "string",
              "name": "dataHash",
              "type": "string"
            },
            {
              "internalType": "uint256",
              "name": "dataUpdatedOn",
              "type": "uint256"
            }
          ],
          "internalType": "struct Types.Customer",
          "name": "",
          "type": "tuple"
        },
        {
          "components": [
            {
              "internalType": "string",
              "name": "id_",
              "type": "string"
            },
            {
              "internalType": "address",
              "name": "userId_",
              "type": "address"
            },
            {
              "internalType": "string",
              "name": "customerName",
              "type": "string"
            },
            {
              "internalType": "address",
              "name": "bankId_",
              "type": "address"
            },
            {
              "internalType": "string",
              "name": "bankName",
              "type": "string"
            },
            {
              "internalType": "string",
              "name": "dataHash",
              "type": "string"
            },
            {
              "internalType": "uint256",
              "name": "updatedOn",
              "type": "uint256"
            },
            {
              "internalType": "enum Types.KycStatus",
              "name": "status",
              "type": "uint8"
            },
            {
              "internalType": "enum Types.DataHashStatus",
              "name": "dataRequest",
              "type": "uint8"
            },
            {
              "internalType": "string",
              "name": "additionalNotes",
              "type": "string"
            }
          ],
          "internalType": "struct Types.KycRequest",
          "name": "",
          "type": "tuple"
        }
      ],
      "stateMutability": "view",
      "type": "function",
      "constant": true
    },
    {
      "inputs": [
        {
          "internalType": "uint256",
          "name": "pageNumber",
          "type": "uint256"
        }
      ],
      "name": "getBankRequests",
      "outputs": [
        {
          "internalType": "uint256",
          "name": "totalPages",
          "type": "uint256"
        },
        {
          "components": [
            {
              "internalType": "string",
              "name": "id_",
              "type": "string"
            },
            {
              "internalType": "address",
              "name": "userId_",
              "type": "address"
            },
            {
              "internalType": "string",
              "name": "customerName",
              "type": "string"
            },
            {
              "internalType": "address",
              "name": "bankId_",
              "type": "address"
            },
            {
              "internalType": "string",
              "name": "bankName",
              "type": "string"
            },
            {
              "internalType": "string",
              "name": "dataHash",
              "type": "string"
            },
            {
              "internalType": "uint256",
              "name": "updatedOn",
              "type": "uint256"
            },
            {
              "internalType": "enum Types.KycStatus",
              "name": "status",
              "type": "uint8"
            },
            {
              "internalType": "enum Types.DataHashStatus",
              "name": "dataRequest",
              "type": "uint8"
            },
            {
              "internalType": "string",
              "name": "additionalNotes",
              "type": "string"
            }
          ],
          "internalType": "struct Types.KycRequest[]",
          "name": "",
          "type": "tuple[]"
        }
      ],
      "stateMutability": "view",
      "type": "function",
      "constant": true
    },
    {
      "inputs": [
        {
          "internalType": "address",
          "name": "bankId_",
          "type": "address"
        },
        {
          "internalType": "bool",
          "name": "approve_",
          "type": "bool"
        },
        {
          "internalType": "string",
          "name": "note_",
          "type": "string"
        }
      ],
      "name": "actionOnKycRequest",
      "outputs": [],
      "stateMutability": "nonpayable",
      "type": "function"
    },
    {
      "inputs": [
        {
          "internalType": "string",
          "name": "name_",
          "type": "string"
        },
        {
          "internalType": "string",
          "name": "email_",
          "type": "string"
        },
        {
          "internalType": "uint256",
          "name": "mobile_",
          "type": "uint256"
        }
      ],
      "name": "updateProfile",
      "outputs": [],
      "stateMutability": "nonpayable",
      "type": "function"
    },
    {
      "inputs": [
        {
          "internalType": "string",
          "name": "hash_",
          "type": "string"
        },
        {
          "internalType": "uint256",
          "name": "currentTime_",
          "type": "uint256"
        }
      ],
      "name": "updateDatahash",
      "outputs": [],
      "stateMutability": "nonpayable",
      "type": "function"
    },
    {
      "inputs": [
        {
          "internalType": "address",
          "name": "bankId_",
          "type": "address"
        },
        {
          "internalType": "string",
          "name": "notes_",
          "type": "string"
        }
      ],
      "name": "removerDatahashPermission",
      "outputs": [],
      "stateMutability": "nonpayable",
      "type": "function"
    },
    {
      "inputs": [
        {
          "internalType": "address",
          "name": "bankId_",
          "type": "address"
        }
      ],
      "name": "searchBanks",
      "outputs": [
        {
          "internalType": "bool",
          "name": "",
          "type": "bool"
        },
        {
          "components": [
            {
              "internalType": "string",
              "name": "name",
              "type": "string"
            },
            {
              "internalType": "string",
              "name": "email",
              "type": "string"
            },
            {
              "internalType": "address",
              "name": "id_",
              "type": "address"
            },
            {
              "internalType": "string",
              "name": "ifscCode",
              "type": "string"
            },
            {
              "internalType": "uint16",
              "name": "kycCount",
              "type": "uint16"
            },
            {
              "internalType": "enum Types.BankStatus",
              "name": "status",
              "type": "uint8"
            }
          ],
          "internalType": "struct Types.Bank",
          "name": "",
          "type": "tuple"
        },
        {
          "components": [
            {
              "internalType": "string",
              "name": "id_",
              "type": "string"
            },
            {
              "internalType": "address",
              "name": "userId_",
              "type": "address"
            },
            {
              "internalType": "string",
              "name": "customerName",
              "type": "string"
            },
            {
              "internalType": "address",
              "name": "bankId_",
              "type": "address"
            },
            {
              "internalType": "string",
              "name": "bankName",
              "type": "string"
            },
            {
              "internalType": "string",
              "name": "dataHash",
              "type": "string"
            },
            {
              "internalType": "uint256",
              "name": "updatedOn",
              "type": "uint256"
            },
            {
              "internalType": "enum Types.KycStatus",
              "name": "status",
              "type": "uint8"
            },
            {
              "internalType": "enum Types.DataHashStatus",
              "name": "dataRequest",
              "type": "uint8"
            },
            {
              "internalType": "string",
              "name": "additionalNotes",
              "type": "string"
            }
          ],
          "internalType": "struct Types.KycRequest",
          "name": "",
          "type": "tuple"
        }
      ],
      "stateMutability": "view",
      "type": "function",
      "constant": true
    },
    {
      "inputs": [],
      "name": "whoAmI",
      "outputs": [
        {
          "components": [
            {
              "internalType": "string",
              "name": "name",
              "type": "string"
            },
            {
              "internalType": "string",
              "name": "email",
              "type": "string"
            },
            {
              "internalType": "address",
              "name": "id_",
              "type": "address"
            },
            {
              "internalType": "enum Types.Role",
              "name": "role",
              "type": "uint8"
            },
            {
              "internalType": "enum Types.BankStatus",
              "name": "status",
              "type": "uint8"
            }
          ],
          "internalType": "struct Types.User",
          "name": "",
          "type": "tuple"
        }
      ],
      "stateMutability": "view",
      "type": "function",
      "constant": true
    },
    {
      "inputs": [
        {
          "internalType": "address",
          "name": "id_",
          "type": "address"
        }
      ],
      "name": "getCustomerDetails",
      "outputs": [
        {
          "components": [
            {
              "internalType": "string",
              "name": "name",
              "type": "string"
            },
            {
              "internalType": "string",
              "name": "email",
              "type": "string"
            },
            {
              "internalType": "uint256",
              "name": "mobileNumber",
              "type": "uint256"
            },
            {
              "internalType": "address",
              "name": "id_",
              "type": "address"
            },
            {
              "internalType": "address",
              "name": "kycVerifiedBy",
              "type": "address"
            },
            {
              "internalType": "string",
              "name": "dataHash",
              "type": "string"
            },
            {
              "internalType": "uint256",
              "name": "dataUpdatedOn",
              "type": "uint256"
            }
          ],
          "internalType": "struct Types.Customer",
          "name": "",
          "type": "tuple"
        }
      ],
      "stateMutability": "view",
      "type": "function",
      "constant": true
    },
    {
      "inputs": [
        {
          "internalType": "address",
          "name": "id_",
          "type": "address"
        }
      ],
      "name": "getBankDetails",
      "outputs": [
        {
          "components": [
            {
              "internalType": "string",
              "name": "name",
              "type": "string"
            },
            {
              "internalType": "string",
              "name": "email",
              "type": "string"
            },
            {
              "internalType": "address",
              "name": "id_",
              "type": "address"
            },
            {
              "internalType": "string",
              "name": "ifscCode",
              "type": "string"
            },
            {
              "internalType": "uint16",
              "name": "kycCount",
              "type": "uint16"
            },
            {
              "internalType": "enum Types.BankStatus",
              "name": "status",
              "type": "uint8"
            }
          ],
          "internalType": "struct Types.Bank",
          "name": "",
          "type": "tuple"
        }
      ],
      "stateMutability": "view",
      "type": "function",
      "constant": true
    }
  ],
  "bytecode": "0x60806040523480156200001157600080fd5b5060405162005b5a38038062005b5a833981016040819052620000349162000296565b60048054600160a060020a031916339081179091556040805160a08101825284815260208082018590528183018490526000606083018190526080830181905293845260069052912081518291908190620000909082620003d7565b5060208201516001820190620000a79082620003d7565b50604082015160028083018054600160a060020a03909316600160a060020a03198416811782556060860151939192600160a860020a03199092161790740100000000000000000000000000000000000000009084908111156200010f576200010f62000300565b0217905550608082015160028201805460a860020a60ff021916750100000000000000000000000000000000000000000083600181111562000155576200015562000300565b021790555050600454600580546001810182556000919091527f036b6384b5eca791c62761152d0c79bb0604c104a5fb6f4eb0703f3154bb3db0018054600160a060020a031916600160a060020a0390921691909117905550620004a992505050565b7f4e487b7100000000000000000000000000000000000000000000000000000000600052604160045260246000fd5b600082601f830112620001f957600080fd5b81516001604060020a0380821115620002165762000216620001b8565b604051601f8301601f19908116603f01168101908282118183101715620002415762000241620001b8565b816040528381526020925086838588010111156200025e57600080fd5b600091505b8382101562000282578582018301518183018401529082019062000263565b600093810190920192909252949350505050565b60008060408385031215620002aa57600080fd5b82516001604060020a0380821115620002c257600080fd5b620002d086838701620001e7565b93506020850151915080821115620002e757600080fd5b50620002f685828601620001e7565b9150509250929050565b7f4e487b7100000000000000000000000000000000000000000000000000000000600052602160045260246000fd5b6002810460018216806200034457607f821691505b6020821081036200037e577f4e487b7100000000000000000000000000000000000000000000000000000000600052602260045260246000fd5b50919050565b601f821115620003d2576000818152602081206020601f86010481016020861015620003ad5750805b6020601f860104820191505b81811015620003ce57828155600101620003b9565b5050505b505050565b81516001604060020a03811115620003f357620003f3620001b8565b6200040b816200040484546200032f565b8462000384565b602080601f8311600181146200044757600084156200042a5750858301515b60028086026008870290910a6000190419821617865550620003ce565b600085815260208120601f198616915b82811015620004785788860151825594840194600190910190840162000457565b50858210156200049957878501516008601f88160260020a60001904191681555b5050505050600202600101905550565b6156a180620004b96000396000f3fe608060405234801561001057600080fd5b5060043610610133576000357c0100000000000000000000000000000000000000000000000000000000900480635f4d6ddf116100bf578063b374a7dd1161008e578063b374a7dd14610280578063baa2b9fd14610293578063da91254c146102b4578063dbc671d0146102c9578063dc57d07e146102dc57600080fd5b80635f4d6ddf1461022557806377fa069c146102475780637c1d61971461025a5780638915fb0c1461026d57600080fd5b80632ce23acb116101065780632ce23acb146101a957806334b52411146101cb578063369ba32b146101de5780633f2c0e96146101f15780634d82d8e81461020457600080fd5b80630c60f83d1461013857806315101e02146101615780631bdd5a0f146101815780632283db9c14610196575b600080fd5b61014b610146366004614754565b6102ef565b6040516101589190614852565b60405180910390f35b61017461016f366004614754565b610458565b6040516101589190614918565b61019461018f366004614a1d565b610540565b005b6101946101a4366004614a8c565b6107c6565b6101bc6101b7366004614754565b61098a565b60405161015893929190614c81565b6101946101d9366004614cbe565b610fbe565b6101946101ec366004614d1c565b611272565b6101946101ff366004614a1d565b6112f8565b610217610212366004614d86565b6114b2565b604051610158929190614d9f565b610238610233366004614754565b6114f7565b60405161015893929190614e08565b610194610255366004614e23565b611ae0565b610194610268366004614f27565b612055565b61019461027b366004614f94565b612140565b61019461028e366004614fd9565b6123ad565b6102a66102a1366004614d86565b61244c565b60405161015892919061500c565b6102bc612539565b6040516101589190615067565b6102a66102d7366004614d86565b6127a0565b6101946102ea366004614cbe565b612859565b6102f76145fe565b81600160a060020a03811661032a5760405160e560020a62461bcd028152600401610321906150dd565b60405180910390fd5b600160a060020a03818116600090815260016020526040902060030154166103675760405160e560020a62461bcd02815260040161032190615114565b600160a060020a038116600090815260016020819052604090912001805461042691906103939061514b565b80601f01602080910402602001604051908101604052809291908181526020018280546103bf9061514b565b801561040c5780601f106103e15761010080835404028352916020019161040c565b820191906000526020600020905b8154815290600101906020018083116103ef57829003601f168201915b505050505060405180602001604052806000815250612a6e565b156104465760405160e560020a62461bcd02815260040161032190615182565b61044f83612ac8565b91505b50919050565b61046061464d565b600160a060020a0380831660009081526003602052604090206002015483911661049f5760405160e560020a62461bcd028152600401610321906151b9565b600160a060020a03808216600081815260036020526040902060020154909116146104df5760405160e560020a62461bcd028152600401610321906151b9565b6000600160a060020a03821660009081526003602052604090206004015462010000900460ff16600181111561051757610517614865565b146105375760405160e560020a62461bcd028152600401610321906151f0565b61044f83612ce7565b33600081815260036020526040902060020154600160a060020a031661057b5760405160e560020a62461bcd028152600401610321906151b9565b600160a060020a03808216600081815260036020526040902060020154909116146105bb5760405160e560020a62461bcd028152600401610321906151b9565b6000600160a060020a03821660009081526003602052604090206004015462010000900460ff1660018111156105f3576105f3614865565b146106135760405160e560020a62461bcd028152600401610321906151f0565b600061061f3385612f7f565b905061062a81612fc7565b6106795760405160e560020a62461bcd02815260206004820152601160248201527f4b594320726571206e6f7420666f756e640000000000000000000000000000006044820152606401610321565b610682846130e3565b6106d15760405160e560020a62461bcd02815260206004820152600e60248201527f55736572206e6f7420666f756e640000000000000000000000000000000000006044820152606401610321565b60006007826040516106e39190615227565b908152604051908190036020019020600701805461ff00191661010083600281111561071157610711614865565b0217905550826007826040516107279190615227565b908152602001604051809103902060080190816107449190615292565b507f524a348eaa0159a5bd9d05667fe8d01e3fef50369ae5f27c2ade107c84bfeaf7816007836040516107779190615227565b90815260200160405180910390206004016007846040516107989190615227565b90815260200160405180910390206002016040516107b8939291906153d4565b60405180910390a150505050565b600454600160a060020a031633146107f35760405160e560020a62461bcd0281526004016103219061540d565b6107fc816131a1565b6040805160a08101825282518152602080840151818301528383018051600160a060020a0390811684860152600160608501526000608085018190529151168152600690915291909120815181906108549082615292565b50602082015160018201906108699082615292565b50604082015160028083018054600160a060020a03909316600160a060020a0319841681178255606086015193919274ffffffffffffffffffffffffffffffffffffffffff199092161790740100000000000000000000000000000000000000009084908111156108dc576108dc614865565b0217905550608082015160028201805475ff0000000000000000000000000000000000000000001916750100000000000000000000000000000000000000000083600181111561092e5761092e614865565b0217905550505060400151600580546001810182556000919091527f036b6384b5eca791c62761152d0c79bb0604c104a5fb6f4eb0703f3154bb3db0018054600160a060020a031916600160a060020a03909216919091179055565b600061099461464d565b61099c61467f565b33806109bd5760405160e560020a62461bcd028152600401610321906150dd565b600160a060020a03818116600090815260016020526040902060030154166109fa5760405160e560020a62461bcd02815260040161032190615114565b600160a060020a0381166000908152600160208190526040909120018054610a2691906103939061514b565b15610a465760405160e560020a62461bcd02815260040161032190615182565b600160a060020a03808616600090815260036020526040902060020154869116610a855760405160e560020a62461bcd028152600401610321906151b9565b600160a060020a0380821660008181526003602052604090206002015490911614610ac55760405160e560020a62461bcd028152600401610321906151b9565b6000600160a060020a03821660009081526003602052604090206004015462010000900460ff166001811115610afd57610afd614865565b14610b1d5760405160e560020a62461bcd028152600401610321906151f0565b6000610b2761464d565b610b2f61467f565b33600090815260096020908152604080832080548251818502810185019093528083529192909190830182828015610b9057602002820191906000526020600020905b8154600160a060020a03168152600190910190602001808311610b72575b5050505050905060005b8151811015610fae578a600160a060020a0316828281518110610bbf57610bbf615444565b6020026020010151600160a060020a031603610f9c5760019450610be28b612ce7565b93506007610bf08c33612f7f565b604051610bfd9190615227565b908152602001604051809103902060405180610140016040529081600082018054610c279061514b565b80601f0160208091040260200160405190810160405280929190818152602001828054610c539061514b565b8015610ca05780601f10610c7557610100808354040283529160200191610ca0565b820191906000526020600020905b815481529060010190602001808311610c8357829003601f168201915b50505091835250506001820154600160a060020a03166020820152600282018054604090920191610cd09061514b565b80601f0160208091040260200160405190810160405280929190818152602001828054610cfc9061514b565b8015610d495780601f10610d1e57610100808354040283529160200191610d49565b820191906000526020600020905b815481529060010190602001808311610d2c57829003601f168201915b50505091835250506003820154600160a060020a03166020820152600482018054604090920191610d799061514b565b80601f0160208091040260200160405190810160405280929190818152602001828054610da59061514b565b8015610df25780601f10610dc757610100808354040283529160200191610df2565b820191906000526020600020905b815481529060010190602001808311610dd557829003601f168201915b50505050508152602001600582018054610e0b9061514b565b80601f0160208091040260200160405190810160405280929190818152602001828054610e379061514b565b8015610e845780601f10610e5957610100808354040283529160200191610e84565b820191906000526020600020905b815481529060010190602001808311610e6757829003601f168201915b505050918352505060068201546020820152600782015460409091019060ff166002811115610eb557610eb5614865565b6002811115610ec657610ec6614865565b81526020016007820160019054906101000a900460ff166002811115610eee57610eee614865565b6002811115610eff57610eff614865565b8152602001600882018054610f139061514b565b80601f0160208091040260200160405190810160405280929190818152602001828054610f3f9061514b565b8015610f8c5780601f10610f6157610100808354040283529160200191610f8c565b820191906000526020600020905b815481529060010190602001808311610f6f57829003601f168201915b5050505050815250509250610fae565b80610fa681615476565b915050610b9a565b5092999198509650945050505050565b3380610fdf5760405160e560020a62461bcd028152600401610321906150dd565b600160a060020a038181166000908152600160205260409020600301541661101c5760405160e560020a62461bcd02815260040161032190615114565b600160a060020a038116600090815260016020819052604090912001805461104891906103939061514b565b156110685760405160e560020a62461bcd02815260040161032190615182565b600160a060020a038085166000908152600360205260409020600201548591166110a75760405160e560020a62461bcd028152600401610321906151b9565b600160a060020a03808216600081815260036020526040902060020154909116146110e75760405160e560020a62461bcd028152600401610321906151b9565b6000600160a060020a03821660009081526003602052604090206004015462010000900460ff16600181111561111f5761111f614865565b1461113f5760405160e560020a62461bcd028152600401610321906151f0565b600061114b8633612f7f565b905061115681612fc7565b6111a55760405160e560020a62461bcd02815260206004820152601960248201527f5573657220646f65736e27742068617665204b594320726571000000000000006044820152606401610321565b600085156111b5575060016111b9565b5060025b806007836040516111ca9190615227565b908152604051908190036020019020600701805461ff0019166101008360028111156111f8576111f8614865565b02179055508460078360405161120e9190615227565b9081526020016040518091039020600801908161122b9190615292565b507f9a3f3f9de5ac964f84f08c6124f7b844ffd73de3fd4b472eb59f6b68e5729a8182338984604051611261949392919061548f565b60405180910390a150505050505050565b600454600160a060020a0316331461129f5760405160e560020a62461bcd0281526004016103219061540d565b6112aa838383613374565b600160a060020a03831660009081526006602052604090206112cc8282615292565b50600160a060020a03831660009081526006602052604090206001016112f28382615292565b50505050565b33806113195760405160e560020a62461bcd028152600401610321906150dd565b600160a060020a03818116600090815260016020526040902060030154166113565760405160e560020a62461bcd02815260040161032190615114565b600160a060020a038116600090815260016020819052604090912001805461138291906103939061514b565b156113a25760405160e560020a62461bcd02815260040161032190615182565b60006113ae8433612f7f565b90506113b981612fc7565b6114085760405160e560020a62461bcd02815260206004820152601460248201527f5065726d697373696f6e206e6f7420666f756e640000000000000000000000006044820152606401610321565b600260078260405161141a9190615227565b908152604051908190036020019020600701805461ff00191661010083600281111561144857611448614865565b02179055508260078260405161145e9190615227565b9081526020016040518091039020600801908161147b9190615292565b507f9a3f3f9de5ac964f84f08c6124f7b844ffd73de3fd4b472eb59f6b68e5729a8181338660026040516107b8949392919061548f565b600454600090606090600160a060020a031633146114e55760405160e560020a62461bcd0281526004016103219061540d565b6114ee8361343a565b91509150915091565b60006115016145fe565b61150961467f565b83600160a060020a0381166115335760405160e560020a62461bcd028152600401610321906150dd565b600160a060020a03818116600090815260016020526040902060030154166115705760405160e560020a62461bcd02815260040161032190615114565b600160a060020a038116600090815260016020819052604090912001805461159c91906103939061514b565b156115bc5760405160e560020a62461bcd02815260040161032190615182565b33600081815260036020526040902060020154600160a060020a03166115f75760405160e560020a62461bcd028152600401610321906151b9565b600160a060020a03808216600081815260036020526040902060020154909116146116375760405160e560020a62461bcd028152600401610321906151b9565b6000600160a060020a03821660009081526003602052604090206004015462010000900460ff16600181111561166f5761166f614865565b1461168f5760405160e560020a62461bcd028152600401610321906151f0565b60006116996145fe565b6116a161467f565b336000908152600860209081526040918290208054835181840281018401909452808452611712938d939092919083018282801561170857602002820191906000526020600020905b8154600160a060020a031681526001909101906020018083116116ea575b50505050506137f9565b90935091508215611ad1576007611729338b612f7f565b6040516117369190615227565b9081526020016040518091039020604051806101400160405290816000820180546117609061514b565b80601f016020809104026020016040519081016040528092919081815260200182805461178c9061514b565b80156117d95780601f106117ae576101008083540402835291602001916117d9565b820191906000526020600020905b8154815290600101906020018083116117bc57829003601f168201915b50505091835250506001820154600160a060020a031660208201526002820180546040909201916118099061514b565b80601f01602080910402602001604051908101604052809291908181526020018280546118359061514b565b80156118825780601f1061185757610100808354040283529160200191611882565b820191906000526020600020905b81548152906001019060200180831161186557829003601f168201915b50505091835250506003820154600160a060020a031660208201526004820180546040909201916118b29061514b565b80601f01602080910402602001604051908101604052809291908181526020018280546118de9061514b565b801561192b5780601f106119005761010080835404028352916020019161192b565b820191906000526020600020905b81548152906001019060200180831161190e57829003601f168201915b505050505081526020016005820180546119449061514b565b80601f01602080910402602001604051908101604052809291908181526020018280546119709061514b565b80156119bd5780601f10611992576101008083540402835291602001916119bd565b820191906000526020600020905b8154815290600101906020018083116119a057829003601f168201915b505050918352505060068201546020820152600782015460409091019060ff1660028111156119ee576119ee614865565b60028111156119ff576119ff614865565b81526020016007820160019054906101000a900460ff166002811115611a2757611a27614865565b6002811115611a3857611a38614865565b8152602001600882018054611a4c9061514b565b80601f0160208091040260200160405190810160405280929190818152602001828054611a789061514b565b8015611ac55780601f10611a9a57610100808354040283529160200191611ac5565b820191906000526020600020905b815481529060010190602001808311611aa857829003601f168201915b50505050508152505090505b91989097509095509350505050565b33600081815260036020526040902060020154600160a060020a0316611b1b5760405160e560020a62461bcd028152600401610321906151b9565b600160a060020a0380821660008181526003602052604090206002015490911614611b5b5760405160e560020a62461bcd028152600401610321906151b9565b6000600160a060020a03821660009081526003602052604090206004015462010000900460ff166001811115611b9357611b93614865565b14611bb35760405160e560020a62461bcd028152600401610321906151f0565b6000611bc3338660600151612f7f565b9050611bce81612fc7565b15611c1e5760405160e560020a62461bcd02815260206004820152601160248201527f5573657220686164206b7963207265712e0000000000000000000000000000006044820152606401610321565b6040518061014001604052808281526020018660600151600160a060020a031681526020018660000151815260200133600160a060020a03168152602001611c6533612ce7565b51815260a0870151602082015260408101869052606001600081526020016000815260200184815250600782604051611c9e9190615227565b90815260405190819003602001902081518190611cbb9082615292565b506020820151600182018054600160a060020a031916600160a060020a0390921691909117905560408201516002820190611cf69082615292565b506060820151600382018054600160a060020a031916600160a060020a0390921691909117905560808201516004820190611d319082615292565b5060a08201516005820190611d469082615292565b5060c0820151600682015560e082015160078201805460ff19166001836002811115611d7457611d74614865565b0217905550610100828101516007830180549192909161ff00191690836002811115611da257611da2614865565b02179055506101208201516008820190611dbc9082615292565b505033600081815260086020908152604080832060608b018051825460018181018555938752858720018054600160a060020a03928316600160a060020a031991821617909155915116855260098452828520805492830181558552929093209092018054909116909217909155517f1c9ca7942139211bfb75ec030ee95c38e96f4eb7d755b28d3eede55f8d5eb86d91508290600790611e5e908390615227565b9081526040519081900360200181208851611e7f93926004909201916154d3565b60405180910390a1611e9485606001516130e3565b61204e57611ea185613a92565b6040518060a0016040528086600001518152602001866020015181526020018660600151600160a060020a03168152602001600280811115611ee557611ee5614865565b8152602001600090526060860151600160a060020a0316600090815260066020526040902081518190611f189082615292565b5060208201516001820190611f2d9082615292565b50604082015160028083018054600160a060020a03909316600160a060020a0319841681178255606086015193919274ffffffffffffffffffffffffffffffffffffffffff19909216179074010000000000000000000000000000000000000000908490811115611fa057611fa0614865565b0217905550608082015160028201805475ff00000000000000000000000000000000000000000019167501000000000000000000000000000000000000000000836001811115611ff257611ff2614865565b021790555050506060850151600580546001810182556000919091527f036b6384b5eca791c62761152d0c79bb0604c104a5fb6f4eb0703f3154bb3db0018054600160a060020a031916600160a060020a039092169190911790555b5050505050565b33806120765760405160e560020a62461bcd028152600401610321906150dd565b600160a060020a03818116600090815260016020526040902060030154166120b35760405160e560020a62461bcd02815260040161032190615114565b600160a060020a03811660009081526001602081905260409091200180546120df91906103939061514b565b156120ff5760405160e560020a62461bcd02815260040161032190615182565b61210a848484613bc7565b3360009081526006602052604090206121238582615292565b5033600090815260066020526040902060010161204e8482615292565b33806121615760405160e560020a62461bcd028152600401610321906150dd565b600160a060020a038181166000908152600160205260409020600301541661219e5760405160e560020a62461bcd02815260040161032190615114565b600160a060020a03811660009081526001602081905260409091200180546121ca91906103939061514b565b156121ea5760405160e560020a62461bcd02815260040161032190615182565b6121f48383613c46565b3360009081526009602090815260408083208054825181850281018501909352808352919290919083018282801561225557602002820191906000526020600020905b8154600160a060020a03168152600190910190602001808311612237575b5050505050905060005b815181101561204e57600061228d83838151811061227f5761227f615444565b602002602001015133612f7f565b905061229881612fc7565b1561239a57856007826040516122ae9190615227565b908152602001604051809103902060050190816122cb9190615292565b50846007826040516122dd9190615227565b90815260200160405180910390206006018190555060006007826040516123049190615227565b908152604051908190036020019020600701805460ff1916600183600281111561233057612330614865565b02179055506040518060400160405280601381526020017f5570646174656420616c6c206d7920646f63730000000000000000000000000081525060078260405161237b9190615227565b908152602001604051809103902060080190816123989190615292565b505b50806123a581615476565b91505061225f565b600454600160a060020a031633146123da5760405160e560020a62461bcd0281526004016103219061540d565b6123e48282613cb8565b600160a060020a0383166000908152600660205260409020600201805475ff0000000000000000000000000000000000000000001916750100000000000000000000000000000000000000000083600181111561244357612443614865565b02179055505050565b336000818152600360205260408120600201549091606091600160a060020a031661248c5760405160e560020a62461bcd028152600401610321906151b9565b600160a060020a03808216600081815260036020526040902060020154909116146124cc5760405160e560020a62461bcd028152600401610321906151b9565b6000600160a060020a03821660009081526003602052604090206004015462010000900460ff16600181111561250457612504614865565b146125245760405160e560020a62461bcd028152600401610321906151f0565b61252f846001613e86565b9250925050915091565b6125416146f5565b336125915760405160e560020a62461bcd02815260206004820152600f60248201527f53656e64657220496420456d70747900000000000000000000000000000000006044820152606401610321565b33600090815260066020526040902060020154600160a060020a03166125cc5760405160e560020a62461bcd02815260040161032190615114565b3360009081526006602052604090819020815160a081019092528054829082906125f59061514b565b80601f01602080910402602001604051908101604052809291908181526020018280546126219061514b565b801561266e5780601f106126435761010080835404028352916020019161266e565b820191906000526020600020905b81548152906001019060200180831161265157829003601f168201915b505050505081526020016001820180546126879061514b565b80601f01602080910402602001604051908101604052809291908181526020018280546126b39061514b565b80156127005780601f106126d557610100808354040283529160200191612700565b820191906000526020600020905b8154815290600101906020018083116126e357829003601f168201915b5050509183525050600282810154600160a060020a038116602084015260409092019174010000000000000000000000000000000000000000900460ff169081111561274e5761274e614865565b600281111561275f5761275f614865565b81526020016002820160159054906101000a900460ff16600181111561278757612787614865565b600181111561279857612798614865565b905250919050565b6000606033806127c55760405160e560020a62461bcd028152600401610321906150dd565b600160a060020a03818116600090815260016020526040902060030154166128025760405160e560020a62461bcd02815260040161032190615114565b600160a060020a038116600090815260016020819052604090912001805461282e91906103939061514b565b1561284e5760405160e560020a62461bcd02815260040161032190615182565b61252f846000613e86565b33600081815260036020526040902060020154600160a060020a03166128945760405160e560020a62461bcd028152600401610321906151b9565b600160a060020a03808216600081815260036020526040902060020154909116146128d45760405160e560020a62461bcd028152600401610321906151b9565b6000600160a060020a03821660009081526003602052604090206004015462010000900460ff16600181111561290c5761290c614865565b1461292c5760405160e560020a62461bcd028152600401610321906151f0565b60006129383386612f7f565b905061294381612fc7565b6129925760405160e560020a62461bcd02815260206004820152601960248201527f5573657220646f65736e27742068617665204b594320726571000000000000006044820152606401610321565b600084156129b4575060016129a633614467565b6129af866144d9565b6129b8565b5060025b806007836040516129c99190615227565b908152604051908190036020019020600701805460ff191660018360028111156129f5576129f5614865565b021790555083600783604051612a0b9190615227565b90815260200160405180910390206008019081612a289190615292565b507f900b83a690e29ff7d6e76e350983afea30403d6c47fe8ce52045fb20074c79a082873384604051612a5e949392919061548f565b60405180910390a1505050505050565b600081604051602001612a819190615227565b6040516020818303038152906040528051906020012083604051602001612aa89190615227565b604051602081830303815290604052805190602001201490505b92915050565b612ad06145fe565b600160a060020a03821660009081526001602052604090819020815160e08101909252805482908290612b029061514b565b80601f0160208091040260200160405190810160405280929190818152602001828054612b2e9061514b565b8015612b7b5780601f10612b5057610100808354040283529160200191612b7b565b820191906000526020600020905b815481529060010190602001808311612b5e57829003601f168201915b50505050508152602001600182018054612b949061514b565b80601f0160208091040260200160405190810160405280929190818152602001828054612bc09061514b565b8015612c0d5780601f10612be257610100808354040283529160200191612c0d565b820191906000526020600020905b815481529060010190602001808311612bf057829003601f168201915b5050509183525050600282015460208201526003820154600160a060020a0390811660408301526004830154166060820152600582018054608090920191612c549061514b565b80601f0160208091040260200160405190810160405280929190818152602001828054612c809061514b565b8015612ccd5780601f10612ca257610100808354040283529160200191612ccd565b820191906000526020600020905b815481529060010190602001808311612cb057829003601f168201915b505050505081526020016006820154815250509050919050565b612cef61464d565b600160a060020a038216612d485760405160e560020a62461bcd02815260206004820152600d60248201527f42616e6b20496420456d707479000000000000000000000000000000000000006044820152606401610321565b600160a060020a03821660009081526003602052604090819020815160c08101909252805482908290612d7a9061514b565b80601f0160208091040260200160405190810160405280929190818152602001828054612da69061514b565b8015612df35780601f10612dc857610100808354040283529160200191612df3565b820191906000526020600020905b815481529060010190602001808311612dd657829003601f168201915b50505050508152602001600182018054612e0c9061514b565b80601f0160208091040260200160405190810160405280929190818152602001828054612e389061514b565b8015612e855780601f10612e5a57610100808354040283529160200191612e85565b820191906000526020600020905b815481529060010190602001808311612e6857829003601f168201915b50505091835250506002820154600160a060020a03166020820152600382018054604090920191612eb59061514b565b80601f0160208091040260200160405190810160405280929190818152602001828054612ee19061514b565b8015612f2e5780601f10612f0357610100808354040283529160200191612f2e565b820191906000526020600020905b815481529060010190602001808311612f1157829003601f168201915b5050509183525050600482015461ffff8116602083015260409091019062010000900460ff166001811115612f6557612f65614865565b6001811115612f7657612f76614865565b90525092915050565b6040516c01000000000000000000000000600160a060020a03808516820260208401528316026034820152606090604801604051602081830303815290604052905092915050565b6000612fe28260405180602001604052806000815250612a6e565b156130325760405160e560020a62461bcd02815260206004820152601060248201527f5265717565737420496420656d707479000000000000000000000000000000006044820152606401610321565b612ac26007836040516130459190615227565b908152604051908190036020019020805461305f9061514b565b80601f016020809104026020016040519081016040528092919081815260200182805461308b9061514b565b80156130d85780601f106130ad576101008083540402835291602001916130d8565b820191906000526020600020905b8154815290600101906020018083116130bb57829003601f168201915b505050505083612a6e565b6000600160a060020a03821661313e5760405160e560020a62461bcd02815260206004820152600b60248201527f496420697320656d7074790000000000000000000000000000000000000000006044820152606401610321565b600160a060020a0382811660009081526001602052604090206003015416158015906131935750600160a060020a038216600090815260016020819052604090912001805461319191906103939061514b565b155b1561319c575060015b919050565b604080820151600160a060020a0390811660009081526003602052919091206002015416156132155760405160e560020a62461bcd02815260206004820152600b60248201527f42616e6b206578697374730000000000000000000000000000000000000000006044820152606401610321565b604080820151600160a060020a03166000908152600360205220815182919081906132409082615292565b50602082015160018201906132559082615292565b506040820151600282018054600160a060020a031916600160a060020a03909216919091179055606082015160038201906132909082615292565b50608082015160048201805461ffff90921661ffff1983168117825560a08501519262ffffff191617620100008360018111156132cf576132cf614865565b0217905550505060408181018051600280546001810182556000919091527f405787fa12a823e0f2b7631cc41b3ba8828b3321ca811111fa75cd3aa3bb5ace018054600160a060020a031916600160a060020a039092169190911790555182516020840151606085015193517f17ee33cc6a54067d735ee1c9200fc0dc8354b1d7deae9908692bcd90723044b1946133699493929161550c565b60405180910390a150565b600160a060020a03838116600090815260036020526040902060020154166133b15760405160e560020a62461bcd028152600401610321906151b9565b600160a060020a03831660009081526003602052604090206133d38282615292565b50600160a060020a03831660009081526003602052604090206001016133f98382615292565b507fc0e694475d9755514453a459373ded91f1517029faca54000da1c3007ec2c4f983828460405161342d9392919061555f565b60405180910390a1505050565b60006060600083116134915760405160e560020a62461bcd02815260206004820152601060248201527f504e2073686f756c64206265203e2030000000000000000000000000000000006044820152606401610321565b6000806000806134fb8760028054806020026020016040519081016040528092919081815260200182805480156134f157602002820191906000526020600020905b8154600160a060020a031681526001909101906020018083116134d3575b505050505061455e565b935093509350935060008367ffffffffffffffff81111561351e5761351e61492b565b60405190808252806020026020018201604052801561355757816020015b61354461464d565b81526020019060019003908161353c5790505b509050825b828110156137ea57600360006002838154811061357b5761357b615444565b6000918252602080832090910154600160a060020a031683528201929092526040908101909120815160c081019092528054829082906135ba9061514b565b80601f01602080910402602001604051908101604052809291908181526020018280546135e69061514b565b80156136335780601f1061360857610100808354040283529160200191613633565b820191906000526020600020905b81548152906001019060200180831161361657829003601f168201915b5050505050815260200160018201805461364c9061514b565b80601f01602080910402602001604051908101604052809291908181526020018280546136789061514b565b80156136c55780601f1061369a576101008083540402835291602001916136c5565b820191906000526020600020905b8154815290600101906020018083116136a857829003601f168201915b50505091835250506002820154600160a060020a031660208201526003820180546040909201916136f59061514b565b80601f01602080910402602001604051908101604052809291908181526020018280546137219061514b565b801561376e5780601f106137435761010080835404028352916020019161376e565b820191906000526020600020905b81548152906001019060200180831161375157829003601f168201915b5050509183525050600482015461ffff8116602083015260409091019062010000900460ff1660018111156137a5576137a5614865565b60018111156137b6576137b6614865565b815250508282815181106137cc576137cc615444565b602002602001018190525080806137e290615476565b91505061355c565b50939793965092945050505050565b60006138036145fe565b600061380d6145fe565b60005b8551811015613a865786600160a060020a031686828151811061383557613835615444565b6020026020010151600160a060020a031603613a7457600192506001600088600160a060020a0316600160a060020a031681526020019081526020016000206040518060e001604052908160008201805461388f9061514b565b80601f01602080910402602001604051908101604052809291908181526020018280546138bb9061514b565b80156139085780601f106138dd57610100808354040283529160200191613908565b820191906000526020600020905b8154815290600101906020018083116138eb57829003601f168201915b505050505081526020016001820180546139219061514b565b80601f016020809104026020016040519081016040528092919081815260200182805461394d9061514b565b801561399a5780601f1061396f5761010080835404028352916020019161399a565b820191906000526020600020905b81548152906001019060200180831161397d57829003601f168201915b5050509183525050600282015460208201526003820154600160a060020a03908116604083015260048301541660608201526005820180546080909201916139e19061514b565b80601f0160208091040260200160405190810160405280929190818152602001828054613a0d9061514b565b8015613a5a5780601f10613a2f57610100808354040283529160200191613a5a565b820191906000526020600020905b815481529060010190602001808311613a3d57829003601f168201915b505050505081526020016006820154815250509150613a86565b80613a7e81615476565b915050613810565b50909590945092505050565b6060810151600160a060020a0316600090815260016020526040902081518291908190613abf9082615292565b5060208201516001820190613ad49082615292565b50604082015160028201556060820151600382018054600160a060020a03928316600160a060020a031991821617909155608084015160048401805491909316911617905560a08201516005820190613b2d9082615292565b5060c09190910151600690910155606081018051600080546001810182559080527f290decd9548b62a8d60345a988386fc84ba6bc95484008f6362f93160ef3e563018054600160a060020a031916600160a060020a0390921691909117905551815160208301516040517f77eacb4962819f791ebd2750d7be9519622ddcf4c37fe09c6fd33ace5ce32ccb93613369939092909161555f565b336000908152600160205260409020613be08482615292565b5033600090815260016020819052604090912001613bfe8382615292565b503360008181526001602052604090819020600201839055517fcfc84fa73e8500b1f994b7616fda16714aa77352defd398c17f8dda41cc921959161342d918690869061555f565b336000908152600160205260409020600501613c628382615292565b5033600081815260016020526040908190206006810184905590517f844d9124dad5a413c4b99664397291f93f1e89513cd8c3a68674c050283c556192613cac9290918690615593565b60405180910390a15050565b600160a060020a03828116600090815260036020526040812060020154909116613cf75760405160e560020a62461bcd028152600401610321906151b9565b818015613d3957506001600160a060020a03841660009081526003602052604090206004015462010000900460ff166001811115613d3757613d37614865565b145b15613da657600160a060020a0383166000908152600360205260409081902060048101805462ff00001916905590517fbbb85d77e85c02977b28ba58175443b7d9c020551c53482ea6df5fe2e1cb884391613d96918691906155b5565b60405180910390a1506000612ac2565b81158015613de957506000600160a060020a03841660009081526003602052604090206004015462010000900460ff166001811115613de757613de7614865565b145b15613e5b57600160a060020a0383166000908152600360205260409081902060048101805462ff000019166201000017905590517fe2914c072e85a93716aea3154e8dc2a6d4f9a823930697852b892fe10bd598f891613e4b918691906155b5565b60405180910390a1506001612ac2565b50600160a060020a03821660009081526003602052604090206004015462010000900460ff16612ac2565b6000606060008411613edd5760405160e560020a62461bcd02815260206004820152601360248201527f504e2073686f756c64206265203e207a65726f000000000000000000000000006044820152606401610321565b600080600080613f6c8888613f0057336000908152600960205260409020613f10565b3360009081526008602052604090205b8054806020026020016040519081016040528092919081815260200182805480156134f157602002820191906000526020600020908154600160a060020a031681526001909101906020018083116134d357505050505061455e565b935093509350935060008367ffffffffffffffff811115613f8f57613f8f61492b565b604051908082528060200260200182016040528015613fc857816020015b613fb561467f565b815260200190600190039081613fad5790505b509050825b82811015614457578861403d57336000908152600960205260409020805460079161401d918490811061400257614002615444565b600091825260209091200154600160a060020a031633612f7f565b60405161402a9190615227565b908152602001604051809103902061409d565b33600081815260086020526040902080546007926140819290918590811061406757614067615444565b600091825260209091200154600160a060020a0316612f7f565b60405161408e9190615227565b90815260200160405180910390205b604051806101400160405290816000820180546140b99061514b565b80601f01602080910402602001604051908101604052809291908181526020018280546140e59061514b565b80156141325780601f1061410757610100808354040283529160200191614132565b820191906000526020600020905b81548152906001019060200180831161411557829003601f168201915b50505091835250506001820154600160a060020a031660208201526002820180546040909201916141629061514b565b80601f016020809104026020016040519081016040528092919081815260200182805461418e9061514b565b80156141db5780601f106141b0576101008083540402835291602001916141db565b820191906000526020600020905b8154815290600101906020018083116141be57829003601f168201915b50505091835250506003820154600160a060020a0316602082015260048201805460409092019161420b9061514b565b80601f01602080910402602001604051908101604052809291908181526020018280546142379061514b565b80156142845780601f1061425957610100808354040283529160200191614284565b820191906000526020600020905b81548152906001019060200180831161426757829003601f168201915b5050505050815260200160058201805461429d9061514b565b80601f01602080910402602001604051908101604052809291908181526020018280546142c99061514b565b80156143165780601f106142eb57610100808354040283529160200191614316565b820191906000526020600020905b8154815290600101906020018083116142f957829003601f168201915b505050918352505060068201546020820152600782015460409091019060ff16600281111561434757614347614865565b600281111561435857614358614865565b81526020016007820160019054906101000a900460ff16600281111561438057614380614865565b600281111561439157614391614865565b81526020016008820180546143a59061514b565b80601f01602080910402602001604051908101604052809291908181526020018280546143d19061514b565b801561441e5780601f106143f35761010080835404028352916020019161441e565b820191906000526020600020905b81548152906001019060200180831161440157829003601f168201915b50505050508152505082828151811061443957614439615444565b6020026020010181905250808061444f90615476565b915050613fcd565b5093989397509295505050505050565b600160a060020a0381166144905760405160e560020a62461bcd028152600401610321906151b9565b600160a060020a0381166000908152600360205260408120600401805461ffff16916144bb836155df565b91906101000a81548161ffff021916908361ffff1602179055505050565b600160a060020a0381166145325760405160e560020a62461bcd02815260206004820152601160248201527f437573746f6d657220496420456d7074790000000000000000000000000000006044820152606401610321565b600160a060020a031660009081526001602052604090206004018054600160a060020a03191633179055565b6000806000806000601986516145749190615619565b905060198651614584919061562d565b9450801561459a578461459681615476565b9550505b601993506145a9600188615641565b6145b4906019615654565b92506145c1876019615654565b9150848711156145d85760009350600091506145f4565b84871480156145e75750600081115b156145f457809350855191505b5092959194509250565b6040518060e001604052806060815260200160608152602001600081526020016000600160a060020a031681526020016000600160a060020a0316815260200160608152602001600081525090565b6040805160c081018252606080825260208201819052600092820183905280820152608081018290529060a082015290565b604051806101400160405280606081526020016000600160a060020a03168152602001606081526020016000600160a060020a03168152602001606081526020016060815260200160008152602001600060028111156146e1576146e1614865565b815260200160008152602001606081525090565b6040518060a0016040528060608152602001606081526020016000600160a060020a031681526020016000600281111561473157614731614865565b81526020016000905290565b8035600160a060020a038116811461319c57600080fd5b60006020828403121561476657600080fd5b61476f8261473d565b9392505050565b60005b83811015614791578181015183820152602001614779565b50506000910152565b600081518084526147b2816020860160208601614776565b601f01601f19169290920160200192915050565b6000815160e084526147db60e085018261479a565b9050602083015184820360208601526147f4828261479a565b915050604083015160408501526060830151600160a060020a038082166060870152806080860151166080870152505060a083015184820360a086015261483b828261479a565b91505060c083015160c08501528091505092915050565b60208152600061476f60208301846147c6565b60e060020a634e487b7102600052602160045260246000fd5b6002811061488e5761488e614865565b9052565b6000815160c084526148a760c085018261479a565b9050602083015184820360208601526148c0828261479a565b915050600160a060020a036040840151166040850152606083015184820360608601526148ed828261479a565b91505061ffff608084015116608085015260a083015161491060a086018261487e565b509392505050565b60208152600061476f6020830184614892565b60e060020a634e487b7102600052604160045260246000fd5b60405160c0810167ffffffffffffffff811182821017156149675761496761492b565b60405290565b60405160e0810167ffffffffffffffff811182821017156149675761496761492b565b600082601f8301126149a157600080fd5b813567ffffffffffffffff808211156149bc576149bc61492b565b604051601f8301601f19908116603f011681019082821181831017156149e4576149e461492b565b816040528381528660208588010111156149fd57600080fd5b836020870160208301376000602085830101528094505050505092915050565b60008060408385031215614a3057600080fd5b614a398361473d565b9150602083013567ffffffffffffffff811115614a5557600080fd5b614a6185828601614990565b9150509250929050565b803561ffff8116811461319c57600080fd5b80356002811061319c57600080fd5b600060208284031215614a9e57600080fd5b813567ffffffffffffffff80821115614ab657600080fd5b9083019060c08286031215614aca57600080fd5b614ad2614944565b823582811115614ae157600080fd5b614aed87828601614990565b825250602083013582811115614b0257600080fd5b614b0e87828601614990565b602083015250614b206040840161473d565b6040820152606083013582811115614b3757600080fd5b614b4387828601614990565b606083015250614b5560808401614a6b565b6080820152614b6660a08401614a7d565b60a082015295945050505050565b60038110614b8457614b84614865565b50565b61488e81614b74565b60006101408251818552614ba68286018261479a565b9150506020830151614bc36020860182600160a060020a03169052565b5060408301518482036040860152614bdb828261479a565b9150506060830151614bf86060860182600160a060020a03169052565b5060808301518482036080860152614c10828261479a565b91505060a083015184820360a0860152614c2a828261479a565b91505060c083015160c085015260e0830151614c4960e0860182614b87565b5061010080840151614c5d82870182614b87565b50506101208084015185830382870152614c77838261479a565b9695505050505050565b8315158152606060208201526000614c9c6060830185614892565b8281036040840152614c778185614b90565b8035801515811461319c57600080fd5b600080600060608486031215614cd357600080fd5b614cdc8461473d565b9250614cea60208501614cae565b9150604084013567ffffffffffffffff811115614d0657600080fd5b614d1286828701614990565b9150509250925092565b600080600060608486031215614d3157600080fd5b614d3a8461473d565b9250602084013567ffffffffffffffff80821115614d5757600080fd5b614d6387838801614990565b93506040860135915080821115614d7957600080fd5b50614d1286828701614990565b600060208284031215614d9857600080fd5b5035919050565b60006040820184835260206040818501528185518084526060860191506060838202870101935082870160005b82811015614dfa57605f19888703018452614de8868351614892565b95509284019290840190600101614dcc565b509398975050505050505050565b8315158152606060208201526000614c9c60608301856147c6565b600080600060608486031215614e3857600080fd5b833567ffffffffffffffff80821115614e5057600080fd5b9085019060e08288031215614e6457600080fd5b614e6c61496d565b823582811115614e7b57600080fd5b614e8789828601614990565b825250602083013582811115614e9c57600080fd5b614ea889828601614990565b60208301525060408301356040820152614ec46060840161473d565b6060820152614ed56080840161473d565b608082015260a083013582811115614eec57600080fd5b614ef889828601614990565b60a08301525060c083013560c082015280955050602086013593506040860135915080821115614d7957600080fd5b600080600060608486031215614f3c57600080fd5b833567ffffffffffffffff80821115614f5457600080fd5b614f6087838801614990565b94506020860135915080821115614f7657600080fd5b50614f8386828701614990565b925050604084013590509250925092565b60008060408385031215614fa757600080fd5b823567ffffffffffffffff811115614fbe57600080fd5b614fca85828601614990565b95602094909401359450505050565b60008060408385031215614fec57600080fd5b614ff58361473d565b915061500360208401614cae565b90509250929050565b60006040820184835260206040818501528185518084526060860191506060838202870101935082870160005b82811015614dfa57605f19888703018452615055868351614b90565b95509284019290840190600101615039565b602081526000825160a0602084015261508360c084018261479a565b90506020840151601f198483030160408501526150a0828261479a565b915050600160a060020a03604085015116606084015260608401516150c481614b74565b80608085015250608084015161491060a085018261487e565b6020808252600b908201527f496420697320456d707479000000000000000000000000000000000000000000604082015260600190565b6020808252600d908201527f5573657220496420456d70747900000000000000000000000000000000000000604082015260600190565b60028104600182168061515f57607f821691505b6020821081036104525760e060020a634e487b7102600052602260045260246000fd5b60208082526010908201527f5573657220456d61696c20456d70747900000000000000000000000000000000604082015260600190565b6020808252600e908201527f42616e6b206e6f7420666f756e64000000000000000000000000000000000000604082015260600190565b60208082526012908201527f42616e6b206973206e6f74206163746976650000000000000000000000000000604082015260600190565b60008251615239818460208701614776565b9190910192915050565b601f82111561528d576000818152602081206020601f8601048101602086101561526a5750805b6020601f860104820191505b8181101561528957828155600101615276565b5050505b505050565b815167ffffffffffffffff8111156152ac576152ac61492b565b6152c0816152ba845461514b565b84615243565b602080601f8311600181146152f957600084156152dd5750858301515b60028086026008870290910a6000190419821617865550615289565b600085815260208120601f198616915b8281101561532857888601518255948401946001909101908401615309565b508582101561534857878501516008601f88160260020a60001904191681555b5050505050600202600101905550565b600081546153658161514b565b808552602060018381168015615382576001811461539b576153c9565b60ff1985168884015283151583028801830195506153c9565b866000528260002060005b858110156153c15781548a82018601529083019084016153a6565b890184019650505b505050505092915050565b6060815260006153e7606083018661479a565b82810360208401526153f98186615358565b90508281036040840152614c778185615358565b60208082526015908201527f4f6e6c792061646d696e20697320616c6c6f7765640000000000000000000000604082015260600190565b60e060020a634e487b7102600052603260045260246000fd5b60e060020a634e487b7102600052601160045260246000fd5b6000600182016154885761548861545d565b5060010190565b6080815260006154a2608083018761479a565b600160a060020a0386811660208501528516604084015290506154c483614b74565b82606083015295945050505050565b6060815260006154e6606083018661479a565b82810360208401526154f88186615358565b90508281036040840152614c77818561479a565b600160a060020a038516815260806020820152600061552e608083018661479a565b8281036040840152615540818661479a565b90508281036060840152615554818561479a565b979650505050505050565b600160a060020a0384168152606060208201526000615581606083018561479a565b8281036040840152614c77818561479a565b600160a060020a03841681526060602082015260006155816060830185615358565b600160a060020a03831681526040602082015260006155d76040830184615358565b949350505050565b600061ffff8083168181036155f6576155f661545d565b6001019392505050565b60e060020a634e487b7102600052601260045260246000fd5b60008261562857615628615600565b500690565b60008261563c5761563c615600565b500490565b81810381811115612ac257612ac261545d565b8082028115828204841417612ac257612ac261545d56fea2646970667358221220696974bff56508dd9bbf629ff71c50b70836d2ea7b033cf28e1379ba1d24550e64736f6c63430008110033",
  "immutableReferences": {},
  "source": "// SPDX-License-Identifier: GPL-3.0\r\npragma solidity >=0.4.25 <0.9.0;\r\n\r\n/** \r\nAssumptions\r\n* Finanicial Institutions - Bank\r\n* Users - Customer\r\n* Super Admin - Admin\r\n*/\r\n\r\nimport \"./Customers.sol\";\r\nimport \"./Banks.sol\";\r\n\r\ncontract KYC is Customers, Banks {\r\n    address admin;\r\n    address[] internal userList;\r\n\r\n    mapping(address => Types.User) internal users;\r\n    mapping(string => Types.KycRequest) internal kycRequests;\r\n    mapping(address => address[]) internal bankCustomers; // All customers associated to a Bank\r\n    mapping(address => address[]) internal customerbanks; // All banks associated to a Customer\r\n\r\n    /**\r\n     * @notice Set admin to one who deploy this contract\r\n     * Who will act as the super-admin to add all the financial institutions (banks)\r\n     * @param name_ Name of the admin\r\n     * @param email_ Email of the admin\r\n     */\r\n    constructor(string memory name_, string memory email_) {\r\n        admin = msg.sender;\r\n        Types.User memory usr_ = Types.User({\r\n            name: name_,\r\n            email: email_,\r\n            id_: admin,\r\n            role: Types.Role.Admin,\r\n            status: Types.BankStatus.Active\r\n        });\r\n        users[admin] = usr_;\r\n        userList.push(admin);\r\n    }\r\n\r\n    // Modifiers\r\n\r\n    /**\r\n     * @notice Checks whether the requestor is admin\r\n     */\r\n    modifier isAdmin() {\r\n        require(msg.sender == admin, \"Only admin is allowed\");\r\n        _;\r\n    }\r\n\r\n    // Support functions\r\n\r\n    /**\r\n     * @notice Checks whether the KYC request already exists\r\n     * @param reqId_ Unique Id of the KYC request\r\n     * @return boolean which says request exists or not\r\n     */\r\n    function kycRequestExists(string memory reqId_)\r\n        internal\r\n        view\r\n        returns (bool)\r\n    {\r\n        require(!Helpers.compareStrings(reqId_, \"\"), \"Request Id empty\");\r\n        return Helpers.compareStrings(kycRequests[reqId_].id_, reqId_);\r\n    }\r\n\r\n    /**\r\n     * @notice All kyc requests. Data will be sent in pages to avoid the more gas fee\r\n     * @param pageNumber page number for which data is needed (1..2..3....n)\r\n     * @param isForBank List needed for bank or for customer\r\n     * @return totalPages Total pages available\r\n     * @return KycRequest[] List of KYC requests in the current page\r\n     */\r\n    function getKYCRequests(uint256 pageNumber, bool isForBank)\r\n        internal\r\n        view\r\n        returns (uint256 totalPages, Types.KycRequest[] memory)\r\n    {\r\n        require(pageNumber > 0, \"PN should be > zero\");\r\n        (\r\n            uint256 pages,\r\n            uint256 pageLength_,\r\n            uint256 startIndex_,\r\n            uint256 endIndex_\r\n        ) = Helpers.getIndexes(\r\n                pageNumber,\r\n                isForBank\r\n                    ? bankCustomers[msg.sender]\r\n                    : customerbanks[msg.sender]\r\n            );\r\n        Types.KycRequest[] memory list_ = new Types.KycRequest[](pageLength_);\r\n        for (uint256 i = startIndex_; i < endIndex_; i++)\r\n            list_[i] = isForBank\r\n                ? kycRequests[\r\n                    Helpers.append(msg.sender, bankCustomers[msg.sender][i])\r\n                ]\r\n                : kycRequests[\r\n                    Helpers.append(customerbanks[msg.sender][i], msg.sender)\r\n                ];\r\n        return (pages, list_);\r\n    }\r\n\r\n    // Events\r\n\r\n    event KycRequestAdded(string reqId, string bankName, string customerName);\r\n    event KycReRequested(string reqId, string bankName, string customerName);\r\n    event KycStatusChanged(\r\n        string reqId,\r\n        address customerId,\r\n        address bankId,\r\n        Types.KycStatus status\r\n    );\r\n    event DataHashPermissionChanged(\r\n        string reqId,\r\n        address customerId,\r\n        address bankId,\r\n        Types.DataHashStatus status\r\n    );\r\n\r\n    // Admin Interface\r\n\r\n    /**\r\n     * @dev All the banks list. Data will be sent in pages to avoid the more gas fee\r\n     * @param pageNumber page number for which data is needed (1..2..3....n)\r\n     * @return totalPages Total pages available\r\n     * @return Bank[] List of banks in the current page\r\n     */\r\n    function getAllBanks(uint256 pageNumber)\r\n        public\r\n        view\r\n        isAdmin\r\n        returns (uint256 totalPages, Types.Bank[] memory)\r\n    {\r\n        return getallbanks(pageNumber);\r\n    }\r\n\r\n    /**\r\n     * @dev To add new bank account\r\n     * @param bank_ Bank details, which need to be added to the system\r\n     */\r\n    function addBank(Types.Bank memory bank_) public isAdmin {\r\n        addbank(bank_);\r\n        // Adding to common list\r\n        users[bank_.id_] = Types.User({\r\n            name: bank_.name,\r\n            email: bank_.email,\r\n            id_: bank_.id_,\r\n            role: Types.Role.Bank,\r\n            status: Types.BankStatus.Active\r\n        });\r\n        userList.push(bank_.id_);\r\n    }\r\n\r\n    /**\r\n     * @dev To add new bank account\r\n     * @param id_ Bank's metamask address\r\n     * @param email_ Bank's email address that need to be updated\r\n     * @param name_ Bank's name which need to be updated\r\n     */\r\n    function updateBankDetails(\r\n        address id_,\r\n        string memory email_,\r\n        string memory name_\r\n    ) public isAdmin {\r\n        updatebank(id_, email_, name_);\r\n        // Updating in common list\r\n        users[id_].name = name_;\r\n        users[id_].email = email_;\r\n    }\r\n\r\n    /**\r\n     * @dev To add new bank account\r\n     * @param id_ Bank's metamask address\r\n     * @param makeActive_ If true, bank will be marked as active, else, it will be marked as deactivateds\r\n     */\r\n    function activateDeactivateBank(address id_, bool makeActive_)\r\n        public\r\n        isAdmin\r\n    {\r\n        // Updating in common list\r\n        users[id_].status = activatedeactivatebank(id_, makeActive_);\r\n    }\r\n\r\n    // Bank Interface\r\n\r\n    /**\r\n     * @dev List of customers, who are linked to the current bank. Data will be sent in pages to avoid the more gas fee\r\n     * @param pageNumber page number for which data is needed (1..2..3....n)\r\n     * @return totalPages Total pages available\r\n     * @return KycRequest[] List of KYC requests in the current page\r\n     */\r\n    function getCustomersOfBank(uint256 pageNumber)\r\n        public\r\n        view\r\n        isValidBank(msg.sender)\r\n        returns (uint256 totalPages, Types.KycRequest[] memory)\r\n    {\r\n        return getKYCRequests(pageNumber, true);\r\n    }\r\n\r\n    /**\r\n     * @notice Records new KYC request for a customer\r\n     * @param customer_ Customer details for whom the request is to be raised\r\n     * @param currentTime_ Current Date & Time in unix epoch timestamp\r\n     * @param notes_ Any additional notes that need to be added\r\n     */\r\n    function addKycRequest(\r\n        Types.Customer memory customer_,\r\n        uint256 currentTime_,\r\n        string memory notes_\r\n    ) public isValidBank(msg.sender) {\r\n        string memory reqId_ = Helpers.append(msg.sender, customer_.id_);\r\n        require(!kycRequestExists(reqId_), \"User had kyc req.\");\r\n\r\n        kycRequests[reqId_] = Types.KycRequest({\r\n            id_: reqId_,\r\n            userId_: customer_.id_,\r\n            customerName: customer_.name,\r\n            bankId_: msg.sender,\r\n            bankName: getsinglebank(msg.sender).name,\r\n            dataHash: customer_.dataHash,\r\n            updatedOn: currentTime_,\r\n            status: Types.KycStatus.Pending,\r\n            dataRequest: Types.DataHashStatus.Pending,\r\n            additionalNotes: notes_\r\n        });\r\n        bankCustomers[msg.sender].push(customer_.id_);\r\n        customerbanks[customer_.id_].push(msg.sender);\r\n        emit KycRequestAdded(\r\n            reqId_,\r\n            kycRequests[reqId_].bankName,\r\n            customer_.name\r\n        );\r\n\r\n        if (!customerExists(customer_.id_)) {\r\n            addcustomer(customer_);\r\n            // Adding to common list\r\n            users[customer_.id_] = Types.User({\r\n                name: customer_.name,\r\n                email: customer_.email,\r\n                id_: customer_.id_,\r\n                role: Types.Role.Customer,\r\n                status: Types.BankStatus.Active\r\n            });\r\n            userList.push(customer_.id_);\r\n        }\r\n    }\r\n\r\n    /**\r\n     * @notice Updates existing KYC request for a customer (It's a re-request)\r\n     * @param id_ Customer ID for whom the request has to be re-raised\r\n     * @param notes_ Any additional notes that need to be added\r\n     */\r\n    function reRequestForKycRequest(address id_, string memory notes_)\r\n        public\r\n        isValidBank(msg.sender)\r\n    {\r\n        string memory reqId_ = Helpers.append(msg.sender, id_);\r\n        require(kycRequestExists(reqId_), \"KYC req not found\");\r\n        require(customerExists(id_), \"User not found\");\r\n\r\n        // kycRequests[reqId_].status = Types.KycStatus.Pending;\r\n        kycRequests[reqId_].dataRequest = Types.DataHashStatus.Pending;\r\n        kycRequests[reqId_].additionalNotes = notes_;\r\n\r\n        emit KycReRequested(\r\n            reqId_,\r\n            kycRequests[reqId_].bankName,\r\n            kycRequests[reqId_].customerName\r\n        );\r\n    }\r\n\r\n    /**\r\n     * @dev To mark the KYC verification as failure\r\n     * @param userId_ Id of the user\r\n     * @param userId_ KYC Verified\r\n     * @param note_ Any info that need to be shared\r\n     */\r\n    function updateKycVerification(\r\n        address userId_,\r\n        bool verified_,\r\n        string memory note_\r\n    ) public isValidBank(msg.sender) {\r\n        string memory reqId_ = Helpers.append(msg.sender, userId_);\r\n        require(kycRequestExists(reqId_), \"User doesn't have KYC req\");\r\n\r\n        Types.KycStatus status_ = Types.KycStatus.Pending;\r\n        if (verified_) {\r\n            status_ = Types.KycStatus.KYCVerified;\r\n            updatekyccount(msg.sender);\r\n            updatekycdoneby(userId_);\r\n        } else {\r\n            status_ = Types.KycStatus.KYCFailed;\r\n        }\r\n\r\n        kycRequests[reqId_].status = status_;\r\n        kycRequests[reqId_].additionalNotes = note_;\r\n        emit KycStatusChanged(reqId_, userId_, msg.sender, status_);\r\n    }\r\n\r\n    /**\r\n     * @dev Search for customer details in the list that the bank is directly linked to\r\n     * @param id_ Customer's metamask Id\r\n     * @return boolean to say if customer exists or not\r\n     * @return Customer object to get the complete details of the customer\r\n     * @return KycRequest object to get the details about the request & it's status\r\n     * Costly operation if we had more customers linked to this single bank\r\n     */\r\n    function searchCustomers(address id_)\r\n        public\r\n        view\r\n        isValidCustomer(id_)\r\n        isValidBank(msg.sender)\r\n        returns (\r\n            bool,\r\n            Types.Customer memory,\r\n            Types.KycRequest memory\r\n        )\r\n    {\r\n        bool found_;\r\n        Types.Customer memory customer_;\r\n        Types.KycRequest memory request_;\r\n        (found_, customer_) = searchcustomers(id_, bankCustomers[msg.sender]);\r\n        if (found_) request_ = kycRequests[Helpers.append(msg.sender, id_)];\r\n        return (found_, customer_, request_);\r\n    }\r\n\r\n    // Customer Interface\r\n\r\n    /**\r\n     * @notice List of all banks. Data will be sent in pages to avoid the more gas fee\r\n     * @dev This is customer facing RPC end point\r\n     * @param pageNumber page number for which data is needed (1..2..3....n)\r\n     * @return totalPages Total pages available\r\n     * @return KycRequest[] List of KYC requests in the current page\r\n     */\r\n    function getBankRequests(uint256 pageNumber)\r\n        public\r\n        view\r\n        isValidCustomer(msg.sender)\r\n        returns (uint256 totalPages, Types.KycRequest[] memory)\r\n    {\r\n        return getKYCRequests(pageNumber, false);\r\n    }\r\n\r\n    /**\r\n     * @dev Updates the KYC request (Either Approves or Rejects)\r\n     * @param bankId_ Id of the bank\r\n     * @param approve_ Approve the data hash or reject\r\n     * @param note_ Any info that need to be shared\r\n     */\r\n    function actionOnKycRequest(\r\n        address bankId_,\r\n        bool approve_,\r\n        string memory note_\r\n    ) public isValidCustomer(msg.sender) isValidBank(bankId_) {\r\n        string memory reqId_ = Helpers.append(bankId_, msg.sender);\r\n        require(kycRequestExists(reqId_), \"User doesn't have KYC req\");\r\n\r\n        Types.DataHashStatus status_ = Types.DataHashStatus.Pending;\r\n        if (approve_) {\r\n            status_ = Types.DataHashStatus.Approved;\r\n        } else {\r\n            status_ = Types.DataHashStatus.Rejected;\r\n        }\r\n        kycRequests[reqId_].dataRequest = status_;\r\n        kycRequests[reqId_].additionalNotes = note_;\r\n\r\n        emit DataHashPermissionChanged(reqId_, msg.sender, bankId_, status_);\r\n    }\r\n\r\n    /**\r\n     * @dev Updates the user profile\r\n     * @param name_ Customer name\r\n     * @param email_ Email that need to be updated\r\n     * @param mobile_ Mobile number that need to be updated\r\n     */\r\n    function updateProfile(\r\n        string memory name_,\r\n        string memory email_,\r\n        uint256 mobile_\r\n    ) public isValidCustomer(msg.sender) {\r\n        updateprofile(name_, email_, mobile_);\r\n        // Updating in common list\r\n        users[msg.sender].name = name_;\r\n        users[msg.sender].email = email_;\r\n    }\r\n\r\n    /**\r\n     * @dev Updates the Datahash of the documents\r\n     * @param hash_ Data hash value that need to be updated\r\n     * @param currentTime_ Current Date Time in unix epoch timestamp\r\n     */\r\n    function updateDatahash(string memory hash_, uint256 currentTime_)\r\n        public\r\n        isValidCustomer(msg.sender)\r\n    {\r\n        updatedatahash(hash_, currentTime_);\r\n\r\n        // Reset KYC verification status for all banks\r\n        address[] memory banksList_ = customerbanks[msg.sender];\r\n        for (uint256 i = 0; i < banksList_.length; i++) {\r\n            string memory reqId_ = Helpers.append(banksList_[i], msg.sender);\r\n            if (kycRequestExists(reqId_)) {\r\n                kycRequests[reqId_].dataHash = hash_;\r\n                kycRequests[reqId_].updatedOn = currentTime_;\r\n                kycRequests[reqId_].status = Types.KycStatus.Pending;\r\n                kycRequests[reqId_].additionalNotes = \"Updated all my docs\";\r\n            }\r\n        }\r\n    }\r\n\r\n    /**\r\n     * @dev Removes the permission to a specific bank, so that they can't access the documents again\r\n     * @param bankId_ Id of the bank to whom permission has to be revoked\r\n     * @param notes_ Any additional notes that need to included\r\n     */\r\n    function removerDatahashPermission(address bankId_, string memory notes_)\r\n        public\r\n        isValidCustomer(msg.sender)\r\n    {\r\n        string memory reqId_ = Helpers.append(bankId_, msg.sender);\r\n        require(kycRequestExists(reqId_), \"Permission not found\");\r\n        kycRequests[reqId_].dataRequest = Types.DataHashStatus.Rejected;\r\n        kycRequests[reqId_].additionalNotes = notes_;\r\n        emit DataHashPermissionChanged(\r\n            reqId_,\r\n            msg.sender,\r\n            bankId_,\r\n            Types.DataHashStatus.Rejected\r\n        );\r\n    }\r\n\r\n    /**\r\n     * @dev Search for bank details in the list that the customer is directly linked to\r\n     * @param bankId_ Bank's metamask Id\r\n     * @return boolean to say if bank exists or not\r\n     * @return Bank object to get the complete details of the bank\r\n     * @return KycRequest object to get the details about the request & it's status\r\n     * Costly operation if we had more banks linked to this single customer\r\n     */\r\n    function searchBanks(address bankId_)\r\n        public\r\n        view\r\n        isValidCustomer(msg.sender)\r\n        isValidBank(bankId_)\r\n        returns (\r\n            bool,\r\n            Types.Bank memory,\r\n            Types.KycRequest memory\r\n        )\r\n    {\r\n        bool found_;\r\n        Types.Bank memory bank_;\r\n        Types.KycRequest memory request_;\r\n        address[] memory banks_ = customerbanks[msg.sender];\r\n\r\n        for (uint256 i = 0; i < banks_.length; i++) {\r\n            if (banks_[i] == bankId_) {\r\n                found_ = true;\r\n                bank_ = getsinglebank(bankId_);\r\n                request_ = kycRequests[Helpers.append(bankId_, msg.sender)];\r\n                break;\r\n            }\r\n        }\r\n        return (found_, bank_, request_);\r\n    }\r\n\r\n    // Common Interface\r\n\r\n    /**\r\n     * @dev Updates the KYC request (Either Approves or Rejects)\r\n     * @return User object which contains the role & other basic info\r\n     */\r\n    function whoAmI() public view returns (Types.User memory) {\r\n        require(msg.sender != address(0), \"Sender Id Empty\");\r\n        require(users[msg.sender].id_ != address(0), \"User Id Empty\");\r\n        return users[msg.sender];\r\n    }\r\n\r\n    /**\r\n     * @dev To get details of the customer\r\n     * @param id_ Customer's metamask address\r\n     * @return Customer object which will have complete details of the customer\r\n     */\r\n    function getCustomerDetails(address id_)\r\n        public\r\n        view\r\n        isValidCustomer(id_)\r\n        returns (Types.Customer memory)\r\n    {\r\n        return getcustomerdetails(id_);\r\n    }\r\n\r\n    /**\r\n     * @dev To get details of the bank\r\n     * @param id_ Bank's metamask address\r\n     * @return Bank object which will have complete details of the bank\r\n     */\r\n    function getBankDetails(address id_)\r\n        public\r\n        view\r\n        isValidBank(id_)\r\n        returns (Types.Bank memory)\r\n    {\r\n        return getsinglebank(id_);\r\n    }\r\n}\r\n",
  "sourcePath": "C:\\Users\\cpchi\\Desktop\\Samarth\\sample-decentralised-kyc-ethereum\\blockchain\\contracts\\KYC.sol",
  "compiler": {
    "name": "solc",
    "version": "0.8.17+commit.8df45f5f.Emscripten.clang"
  },
  "schemaVersion": "3.4.5",
  "updatedAt": "2022-11-09T13:04:21.312Z",
  "networkType": "ethereum",
  "devdoc": {
    "kind": "dev",
    "methods": {
      "actionOnKycRequest(address,bool,string)": {
        "details": "Updates the KYC request (Either Approves or Rejects)",
        "params": {
          "approve_": "Approve the data hash or reject",
          "bankId_": "Id of the bank",
          "note_": "Any info that need to be shared"
        }
      },
      "activateDeactivateBank(address,bool)": {
        "details": "To add new bank account",
        "params": {
          "id_": "Bank's metamask address",
          "makeActive_": "If true, bank will be marked as active, else, it will be marked as deactivateds"
        }
      },
      "addBank((string,string,address,string,uint16,uint8))": {
        "details": "To add new bank account",
        "params": {
          "bank_": "Bank details, which need to be added to the system"
        }
      },
      "addKycRequest((string,string,uint256,address,address,string,uint256),uint256,string)": {
        "params": {
          "currentTime_": "Current Date & Time in unix epoch timestamp",
          "customer_": "Customer details for whom the request is to be raised",
          "notes_": "Any additional notes that need to be added"
        }
      },
      "constructor": {
        "params": {
          "email_": "Email of the admin",
          "name_": "Name of the admin"
        }
      },
      "getAllBanks(uint256)": {
        "details": "All the banks list. Data will be sent in pages to avoid the more gas fee",
        "params": {
          "pageNumber": "page number for which data is needed (1..2..3....n)"
        },
        "returns": {
          "_1": "Bank[] List of banks in the current page",
          "totalPages": "Total pages available"
        }
      },
      "getBankDetails(address)": {
        "details": "To get details of the bank",
        "params": {
          "id_": "Bank's metamask address"
        },
        "returns": {
          "_0": "Bank object which will have complete details of the bank"
        }
      },
      "getBankRequests(uint256)": {
        "details": "This is customer facing RPC end point",
        "params": {
          "pageNumber": "page number for which data is needed (1..2..3....n)"
        },
        "returns": {
          "_1": "KycRequest[] List of KYC requests in the current page",
          "totalPages": "Total pages available"
        }
      },
      "getCustomerDetails(address)": {
        "details": "To get details of the customer",
        "params": {
          "id_": "Customer's metamask address"
        },
        "returns": {
          "_0": "Customer object which will have complete details of the customer"
        }
      },
      "getCustomersOfBank(uint256)": {
        "details": "List of customers, who are linked to the current bank. Data will be sent in pages to avoid the more gas fee",
        "params": {
          "pageNumber": "page number for which data is needed (1..2..3....n)"
        },
        "returns": {
          "_1": "KycRequest[] List of KYC requests in the current page",
          "totalPages": "Total pages available"
        }
      },
      "reRequestForKycRequest(address,string)": {
        "params": {
          "id_": "Customer ID for whom the request has to be re-raised",
          "notes_": "Any additional notes that need to be added"
        }
      },
      "removerDatahashPermission(address,string)": {
        "details": "Removes the permission to a specific bank, so that they can't access the documents again",
        "params": {
          "bankId_": "Id of the bank to whom permission has to be revoked",
          "notes_": "Any additional notes that need to included"
        }
      },
      "searchBanks(address)": {
        "details": "Search for bank details in the list that the customer is directly linked to",
        "params": {
          "bankId_": "Bank's metamask Id"
        },
        "returns": {
          "_0": "boolean to say if bank exists or not",
          "_1": "Bank object to get the complete details of the bank",
          "_2": "KycRequest object to get the details about the request & it's status Costly operation if we had more banks linked to this single customer"
        }
      },
      "searchCustomers(address)": {
        "details": "Search for customer details in the list that the bank is directly linked to",
        "params": {
          "id_": "Customer's metamask Id"
        },
        "returns": {
          "_0": "boolean to say if customer exists or not",
          "_1": "Customer object to get the complete details of the customer",
          "_2": "KycRequest object to get the details about the request & it's status Costly operation if we had more customers linked to this single bank"
        }
      },
      "updateBankDetails(address,string,string)": {
        "details": "To add new bank account",
        "params": {
          "email_": "Bank's email address that need to be updated",
          "id_": "Bank's metamask address",
          "name_": "Bank's name which need to be updated"
        }
      },
      "updateDatahash(string,uint256)": {
        "details": "Updates the Datahash of the documents",
        "params": {
          "currentTime_": "Current Date Time in unix epoch timestamp",
          "hash_": "Data hash value that need to be updated"
        }
      },
      "updateKycVerification(address,bool,string)": {
        "details": "To mark the KYC verification as failure",
        "params": {
          "note_": "Any info that need to be shared",
          "userId_": "KYC Verified"
        }
      },
      "updateProfile(string,string,uint256)": {
        "details": "Updates the user profile",
        "params": {
          "email_": "Email that need to be updated",
          "mobile_": "Mobile number that need to be updated",
          "name_": "Customer name"
        }
      },
      "whoAmI()": {
        "details": "Updates the KYC request (Either Approves or Rejects)",
        "returns": {
          "_0": "User object which contains the role & other basic info"
        }
      }
    },
    "version": 1
  },
  "userdoc": {
    "kind": "user",
    "methods": {
      "addKycRequest((string,string,uint256,address,address,string,uint256),uint256,string)": {
        "notice": "Records new KYC request for a customer"
      },
      "constructor": {
        "notice": "Set admin to one who deploy this contract Who will act as the super-admin to add all the financial institutions (banks)"
      },
      "getBankRequests(uint256)": {
        "notice": "List of all banks. Data will be sent in pages to avoid the more gas fee"
      },
      "reRequestForKycRequest(address,string)": {
        "notice": "Updates existing KYC request for a customer (It's a re-request)"
      }
    },
    "version": 1
  }
}